{
  "_format": "hh-sol-artifact-1",
  "contractName": "LokeyERC20",
  "sourceName": "contracts/LokeyERC20.sol",
  "abi": [
    {
      "inputs": [],
      "stateMutability": "nonpayable",
      "type": "constructor"
    },
    {
      "anonymous": false,
      "inputs": [
        {
          "indexed": true,
          "internalType": "address",
          "name": "owner",
          "type": "address"
        },
        {
          "indexed": true,
          "internalType": "address",
          "name": "spender",
          "type": "address"
        },
        {
          "indexed": false,
          "internalType": "uint256",
          "name": "value",
          "type": "uint256"
        }
      ],
      "name": "Approval",
      "type": "event"
    },
    {
      "anonymous": false,
      "inputs": [
        {
          "indexed": true,
          "internalType": "address",
          "name": "from",
          "type": "address"
        },
        {
          "indexed": true,
          "internalType": "address",
          "name": "to",
          "type": "address"
        },
        {
          "indexed": false,
          "internalType": "uint256",
          "name": "value",
          "type": "uint256"
        }
      ],
      "name": "Transfer",
      "type": "event"
    },
    {
      "inputs": [
        {
          "internalType": "address",
          "name": "owner",
          "type": "address"
        },
        {
          "internalType": "address",
          "name": "spender",
          "type": "address"
        }
      ],
      "name": "allowance",
      "outputs": [
        {
          "internalType": "uint256",
          "name": "",
          "type": "uint256"
        }
      ],
      "stateMutability": "view",
      "type": "function"
    },
    {
      "inputs": [
        {
          "internalType": "address",
          "name": "spender",
          "type": "address"
        },
        {
          "internalType": "uint256",
          "name": "amount",
          "type": "uint256"
        }
      ],
      "name": "approve",
      "outputs": [
        {
          "internalType": "bool",
          "name": "",
          "type": "bool"
        }
      ],
      "stateMutability": "nonpayable",
      "type": "function"
    },
    {
      "inputs": [
        {
          "internalType": "address",
          "name": "account",
          "type": "address"
        }
      ],
      "name": "balanceOf",
      "outputs": [
        {
          "internalType": "uint256",
          "name": "",
          "type": "uint256"
        }
      ],
      "stateMutability": "view",
      "type": "function"
    },
    {
      "inputs": [],
      "name": "decimals",
      "outputs": [
        {
          "internalType": "uint8",
          "name": "",
          "type": "uint8"
        }
      ],
      "stateMutability": "view",
      "type": "function"
    },
    {
      "inputs": [
        {
          "internalType": "address",
          "name": "spender",
          "type": "address"
        },
        {
          "internalType": "uint256",
          "name": "subtractedValue",
          "type": "uint256"
        }
      ],
      "name": "decreaseAllowance",
      "outputs": [
        {
          "internalType": "bool",
          "name": "",
          "type": "bool"
        }
      ],
      "stateMutability": "nonpayable",
      "type": "function"
    },
    {
      "inputs": [
        {
          "internalType": "address",
          "name": "spender",
          "type": "address"
        },
        {
          "internalType": "uint256",
          "name": "addedValue",
          "type": "uint256"
        }
      ],
      "name": "increaseAllowance",
      "outputs": [
        {
          "internalType": "bool",
          "name": "",
          "type": "bool"
        }
      ],
      "stateMutability": "nonpayable",
      "type": "function"
    },
    {
      "inputs": [],
      "name": "maxSupply",
      "outputs": [
        {
          "internalType": "uint256",
          "name": "",
          "type": "uint256"
        }
      ],
      "stateMutability": "view",
      "type": "function"
    },
    {
      "inputs": [
        {
          "internalType": "uint256",
          "name": "amount",
          "type": "uint256"
        }
      ],
      "name": "mint",
      "outputs": [
        {
          "internalType": "bool",
          "name": "",
          "type": "bool"
        }
      ],
      "stateMutability": "nonpayable",
      "type": "function"
    },
    {
      "inputs": [],
      "name": "name",
      "outputs": [
        {
          "internalType": "string",
          "name": "",
          "type": "string"
        }
      ],
      "stateMutability": "view",
      "type": "function"
    },
    {
      "inputs": [
        {
          "internalType": "address",
          "name": "_lo_stake",
          "type": "address"
        }
      ],
      "name": "setLoStake",
      "outputs": [
        {
          "internalType": "bool",
          "name": "",
          "type": "bool"
        },
        {
          "internalType": "address",
          "name": "",
          "type": "address"
        }
      ],
      "stateMutability": "nonpayable",
      "type": "function"
    },
    {
      "inputs": [],
      "name": "symbol",
      "outputs": [
        {
          "internalType": "string",
          "name": "",
          "type": "string"
        }
      ],
      "stateMutability": "view",
      "type": "function"
    },
    {
      "inputs": [],
      "name": "totalSupply",
      "outputs": [
        {
          "internalType": "uint256",
          "name": "",
          "type": "uint256"
        }
      ],
      "stateMutability": "view",
      "type": "function"
    },
    {
      "inputs": [
        {
          "internalType": "address",
          "name": "to",
          "type": "address"
        },
        {
          "internalType": "uint256",
          "name": "amount",
          "type": "uint256"
        }
      ],
      "name": "transfer",
      "outputs": [
        {
          "internalType": "bool",
          "name": "",
          "type": "bool"
        }
      ],
      "stateMutability": "nonpayable",
      "type": "function"
    },
    {
      "inputs": [
        {
          "internalType": "address",
          "name": "from",
          "type": "address"
        },
        {
          "internalType": "address",
          "name": "to",
          "type": "address"
        },
        {
          "internalType": "uint256",
          "name": "amount",
          "type": "uint256"
        }
      ],
      "name": "transferFrom",
      "outputs": [
        {
          "internalType": "bool",
          "name": "",
          "type": "bool"
        }
      ],
      "stateMutability": "nonpayable",
      "type": "function"
    },
    {
      "inputs": [],
      "name": "viewAdmin",
      "outputs": [
        {
          "internalType": "address",
          "name": "",
          "type": "address"
        }
      ],
      "stateMutability": "view",
      "type": "function"
    },
    {
      "inputs": [],
      "name": "viewLoStake",
      "outputs": [
        {
          "internalType": "address",
          "name": "",
          "type": "address"
        }
      ],
      "stateMutability": "view",
      "type": "function"
    }
  ],
  "bytecode": "0x60806040526b033b2e3c9fd0803ce80000006006553480156200002157600080fd5b506040518060400160405280600881526020017f4c6f6b657944414f0000000000000000000000000000000000000000000000008152506040518060400160405280600581526020017f4c4f4b455900000000000000000000000000000000000000000000000000000081525081600390816200009f919062000536565b508060049081620000b1919062000536565b50505033600760006101000a81548173ffffffffffffffffffffffffffffffffffffffff021916908373ffffffffffffffffffffffffffffffffffffffff16021790555062000134600760009054906101000a900473ffffffffffffffffffffffffffffffffffffffff166a295be96e640669720000006200013a60201b60201c565b62000738565b600073ffffffffffffffffffffffffffffffffffffffff168273ffffffffffffffffffffffffffffffffffffffff1603620001ac576040517f08c379a0000000000000000000000000000000000000000000000000000000008152600401620001a3906200067e565b60405180910390fd5b620001c060008383620002b260201b60201c565b8060026000828254620001d49190620006cf565b92505081905550806000808473ffffffffffffffffffffffffffffffffffffffff1673ffffffffffffffffffffffffffffffffffffffff16815260200190815260200160002060008282546200022b9190620006cf565b925050819055508173ffffffffffffffffffffffffffffffffffffffff16600073ffffffffffffffffffffffffffffffffffffffff167fddf252ad1be2c89b69c2b068fc378daa952ba7f163c4a11628f55a4df523b3ef836040516200029291906200071b565b60405180910390a3620002ae60008383620002b760201b60201c565b5050565b505050565b505050565b600081519050919050565b7f4e487b7100000000000000000000000000000000000000000000000000000000600052604160045260246000fd5b7f4e487b7100000000000000000000000000000000000000000000000000000000600052602260045260246000fd5b600060028204905060018216806200033e57607f821691505b602082108103620003545762000353620002f6565b5b50919050565b60008190508160005260206000209050919050565b60006020601f8301049050919050565b600082821b905092915050565b600060088302620003be7fffffffffffffffffffffffffffffffffffffffffffffffffffffffffffffffff826200037f565b620003ca86836200037f565b95508019841693508086168417925050509392505050565b6000819050919050565b6000819050919050565b600062000417620004116200040b84620003e2565b620003ec565b620003e2565b9050919050565b6000819050919050565b6200043383620003f6565b6200044b62000442826200041e565b8484546200038c565b825550505050565b600090565b6200046262000453565b6200046f81848462000428565b505050565b5b8181101562000497576200048b60008262000458565b60018101905062000475565b5050565b601f821115620004e657620004b0816200035a565b620004bb846200036f565b81016020851015620004cb578190505b620004e3620004da856200036f565b83018262000474565b50505b505050565b600082821c905092915050565b60006200050b60001984600802620004eb565b1980831691505092915050565b6000620005268383620004f8565b9150826002028217905092915050565b6200054182620002bc565b67ffffffffffffffff8111156200055d576200055c620002c7565b5b62000569825462000325565b620005768282856200049b565b600060209050601f831160018114620005ae576000841562000599578287015190505b620005a5858262000518565b86555062000615565b601f198416620005be866200035a565b60005b82811015620005e857848901518255600182019150602085019450602081019050620005c1565b8683101562000608578489015162000604601f891682620004f8565b8355505b6001600288020188555050505b505050505050565b600082825260208201905092915050565b7f45524332303a206d696e7420746f20746865207a65726f206164647265737300600082015250565b600062000666601f836200061d565b915062000673826200062e565b602082019050919050565b60006020820190508181036000830152620006998162000657565b9050919050565b7f4e487b7100000000000000000000000000000000000000000000000000000000600052601160045260246000fd5b6000620006dc82620003e2565b9150620006e983620003e2565b9250828201905080821115620007045762000703620006a0565b5b92915050565b6200071581620003e2565b82525050565b60006020820190506200073260008301846200070a565b92915050565b611aeb80620007486000396000f3fe608060405234801561001057600080fd5b50600436106101005760003560e01c806395d89b4111610097578063a9059cbb11610066578063a9059cbb146102d9578063d1823b2814610309578063d5abeb011461033a578063dd62ed3e1461035857610100565b806395d89b411461023d5780639910ed9a1461025b578063a0712d6814610279578063a457c2d7146102a957610100565b8063313ce567116100d3578063313ce567146101a157806339509351146101bf57806370a08231146101ef57806377b06d011461021f57610100565b806306fdde0314610105578063095ea7b31461012357806318160ddd1461015357806323b872dd14610171575b600080fd5b61010d610388565b60405161011a919061112c565b60405180910390f35b61013d600480360381019061013891906111e7565b61041a565b60405161014a9190611242565b60405180910390f35b61015b61043d565b604051610168919061126c565b60405180910390f35b61018b60048036038101906101869190611287565b610447565b6040516101989190611242565b60405180910390f35b6101a9610476565b6040516101b691906112f6565b60405180910390f35b6101d960048036038101906101d491906111e7565b61047f565b6040516101e69190611242565b60405180910390f35b61020960048036038101906102049190611311565b6104b6565b604051610216919061126c565b60405180910390f35b6102276104fe565b604051610234919061134d565b60405180910390f35b610245610528565b604051610252919061112c565b60405180910390f35b6102636105ba565b604051610270919061134d565b60405180910390f35b610293600480360381019061028e9190611368565b6105e4565b6040516102a09190611242565b60405180910390f35b6102c360048036038101906102be91906111e7565b610799565b6040516102d09190611242565b60405180910390f35b6102f360048036038101906102ee91906111e7565b610810565b6040516103009190611242565b60405180910390f35b610323600480360381019061031e9190611311565b610833565b604051610331929190611395565b60405180910390f35b6103426109c6565b60405161034f919061126c565b60405180910390f35b610372600480360381019061036d91906113be565b6109d0565b60405161037f919061126c565b60405180910390f35b6060600380546103979061142d565b80601f01602080910402602001604051908101604052809291908181526020018280546103c39061142d565b80156104105780601f106103e557610100808354040283529160200191610410565b820191906000526020600020905b8154815290600101906020018083116103f357829003601f168201915b5050505050905090565b600080610425610a57565b9050610432818585610a5f565b600191505092915050565b6000600254905090565b600080610452610a57565b905061045f858285610c28565b61046a858585610cb4565b60019150509392505050565b60006012905090565b60008061048a610a57565b90506104ab81858561049c85896109d0565b6104a6919061148d565b610a5f565b600191505092915050565b60008060008373ffffffffffffffffffffffffffffffffffffffff1673ffffffffffffffffffffffffffffffffffffffff168152602001908152602001600020549050919050565b6000600560009054906101000a900473ffffffffffffffffffffffffffffffffffffffff16905090565b6060600480546105379061142d565b80601f01602080910402602001604051908101604052809291908181526020018280546105639061142d565b80156105b05780601f10610585576101008083540402835291602001916105b0565b820191906000526020600020905b81548152906001019060200180831161059357829003601f168201915b5050505050905090565b6000600760009054906101000a900473ffffffffffffffffffffffffffffffffffffffff16905090565b6000600560009054906101000a900473ffffffffffffffffffffffffffffffffffffffff1673ffffffffffffffffffffffffffffffffffffffff163373ffffffffffffffffffffffffffffffffffffffff1614610676576040517f08c379a000000000000000000000000000000000000000000000000000000000815260040161066d9061150d565b60405180910390fd5b600073ffffffffffffffffffffffffffffffffffffffff16600560009054906101000a900473ffffffffffffffffffffffffffffffffffffffff1673ffffffffffffffffffffffffffffffffffffffff1603610707576040517f08c379a00000000000000000000000000000000000000000000000000000000081526004016106fe90611579565b60405180910390fd5b600061071161043d565b90506006548382610722919061148d565b1115610763576040517f08c379a000000000000000000000000000000000000000000000000000000000815260040161075a906115e5565b60405180910390fd5b61078f600560009054906101000a900473ffffffffffffffffffffffffffffffffffffffff1684610f33565b6001915050919050565b6000806107a4610a57565b905060006107b282866109d0565b9050838110156107f7576040517f08c379a00000000000000000000000000000000000000000000000000000000081526004016107ee90611677565b60405180910390fd5b6108048286868403610a5f565b60019250505092915050565b60008061081b610a57565b9050610828818585610cb4565b600191505092915050565b600080600760009054906101000a900473ffffffffffffffffffffffffffffffffffffffff1673ffffffffffffffffffffffffffffffffffffffff163373ffffffffffffffffffffffffffffffffffffffff16146108c6576040517f08c379a00000000000000000000000000000000000000000000000000000000081526004016108bd9061150d565b60405180910390fd5b600073ffffffffffffffffffffffffffffffffffffffff16600560009054906101000a900473ffffffffffffffffffffffffffffffffffffffff1673ffffffffffffffffffffffffffffffffffffffff1614610957576040517f08c379a000000000000000000000000000000000000000000000000000000000815260040161094e906116e3565b60405180910390fd5b82600560006101000a81548173ffffffffffffffffffffffffffffffffffffffff021916908373ffffffffffffffffffffffffffffffffffffffff1602179055506001600560009054906101000a900473ffffffffffffffffffffffffffffffffffffffff1691509150915091565b6000600654905090565b6000600160008473ffffffffffffffffffffffffffffffffffffffff1673ffffffffffffffffffffffffffffffffffffffff16815260200190815260200160002060008373ffffffffffffffffffffffffffffffffffffffff1673ffffffffffffffffffffffffffffffffffffffff16815260200190815260200160002054905092915050565b600033905090565b600073ffffffffffffffffffffffffffffffffffffffff168373ffffffffffffffffffffffffffffffffffffffff1603610ace576040517f08c379a0000000000000000000000000000000000000000000000000000000008152600401610ac590611775565b60405180910390fd5b600073ffffffffffffffffffffffffffffffffffffffff168273ffffffffffffffffffffffffffffffffffffffff1603610b3d576040517f08c379a0000000000000000000000000000000000000000000000000000000008152600401610b3490611807565b60405180910390fd5b80600160008573ffffffffffffffffffffffffffffffffffffffff1673ffffffffffffffffffffffffffffffffffffffff16815260200190815260200160002060008473ffffffffffffffffffffffffffffffffffffffff1673ffffffffffffffffffffffffffffffffffffffff168152602001908152602001600020819055508173ffffffffffffffffffffffffffffffffffffffff168373ffffffffffffffffffffffffffffffffffffffff167f8c5be1e5ebec7d5bd14f71427d1e84f3dd0314c0f7b2291e5b200ac8c7c3b92583604051610c1b919061126c565b60405180910390a3505050565b6000610c3484846109d0565b90507fffffffffffffffffffffffffffffffffffffffffffffffffffffffffffffffff8114610cae5781811015610ca0576040517f08c379a0000000000000000000000000000000000000000000000000000000008152600401610c9790611873565b60405180910390fd5b610cad8484848403610a5f565b5b50505050565b600073ffffffffffffffffffffffffffffffffffffffff168373ffffffffffffffffffffffffffffffffffffffff1603610d23576040517f08c379a0000000000000000000000000000000000000000000000000000000008152600401610d1a90611905565b60405180910390fd5b600073ffffffffffffffffffffffffffffffffffffffff168273ffffffffffffffffffffffffffffffffffffffff1603610d92576040517f08c379a0000000000000000000000000000000000000000000000000000000008152600401610d8990611997565b60405180910390fd5b610d9d838383611092565b60008060008573ffffffffffffffffffffffffffffffffffffffff1673ffffffffffffffffffffffffffffffffffffffff16815260200190815260200160002054905081811015610e23576040517f08c379a0000000000000000000000000000000000000000000000000000000008152600401610e1a90611a29565b60405180910390fd5b8181036000808673ffffffffffffffffffffffffffffffffffffffff1673ffffffffffffffffffffffffffffffffffffffff16815260200190815260200160002081905550816000808573ffffffffffffffffffffffffffffffffffffffff1673ffffffffffffffffffffffffffffffffffffffff1681526020019081526020016000206000828254610eb6919061148d565b925050819055508273ffffffffffffffffffffffffffffffffffffffff168473ffffffffffffffffffffffffffffffffffffffff167fddf252ad1be2c89b69c2b068fc378daa952ba7f163c4a11628f55a4df523b3ef84604051610f1a919061126c565b60405180910390a3610f2d848484611097565b50505050565b600073ffffffffffffffffffffffffffffffffffffffff168273ffffffffffffffffffffffffffffffffffffffff1603610fa2576040517f08c379a0000000000000000000000000000000000000000000000000000000008152600401610f9990611a95565b60405180910390fd5b610fae60008383611092565b8060026000828254610fc0919061148d565b92505081905550806000808473ffffffffffffffffffffffffffffffffffffffff1673ffffffffffffffffffffffffffffffffffffffff1681526020019081526020016000206000828254611015919061148d565b925050819055508173ffffffffffffffffffffffffffffffffffffffff16600073ffffffffffffffffffffffffffffffffffffffff167fddf252ad1be2c89b69c2b068fc378daa952ba7f163c4a11628f55a4df523b3ef8360405161107a919061126c565b60405180910390a361108e60008383611097565b5050565b505050565b505050565b600081519050919050565b600082825260208201905092915050565b60005b838110156110d65780820151818401526020810190506110bb565b60008484015250505050565b6000601f19601f8301169050919050565b60006110fe8261109c565b61110881856110a7565b93506111188185602086016110b8565b611121816110e2565b840191505092915050565b6000602082019050818103600083015261114681846110f3565b905092915050565b600080fd5b600073ffffffffffffffffffffffffffffffffffffffff82169050919050565b600061117e82611153565b9050919050565b61118e81611173565b811461119957600080fd5b50565b6000813590506111ab81611185565b92915050565b6000819050919050565b6111c4816111b1565b81146111cf57600080fd5b50565b6000813590506111e1816111bb565b92915050565b600080604083850312156111fe576111fd61114e565b5b600061120c8582860161119c565b925050602061121d858286016111d2565b9150509250929050565b60008115159050919050565b61123c81611227565b82525050565b60006020820190506112576000830184611233565b92915050565b611266816111b1565b82525050565b6000602082019050611281600083018461125d565b92915050565b6000806000606084860312156112a05761129f61114e565b5b60006112ae8682870161119c565b93505060206112bf8682870161119c565b92505060406112d0868287016111d2565b9150509250925092565b600060ff82169050919050565b6112f0816112da565b82525050565b600060208201905061130b60008301846112e7565b92915050565b6000602082840312156113275761132661114e565b5b60006113358482850161119c565b91505092915050565b61134781611173565b82525050565b6000602082019050611362600083018461133e565b92915050565b60006020828403121561137e5761137d61114e565b5b600061138c848285016111d2565b91505092915050565b60006040820190506113aa6000830185611233565b6113b7602083018461133e565b9392505050565b600080604083850312156113d5576113d461114e565b5b60006113e38582860161119c565b92505060206113f48582860161119c565b9150509250929050565b7f4e487b7100000000000000000000000000000000000000000000000000000000600052602260045260246000fd5b6000600282049050600182168061144557607f821691505b602082108103611458576114576113fe565b5b50919050565b7f4e487b7100000000000000000000000000000000000000000000000000000000600052601160045260246000fd5b6000611498826111b1565b91506114a3836111b1565b92508282019050808211156114bb576114ba61145e565b5b92915050565b7f556e617574686f72697a65640000000000000000000000000000000000000000600082015250565b60006114f7600c836110a7565b9150611502826114c1565b602082019050919050565b60006020820190508181036000830152611526816114ea565b9050919050565b7f4c6f5374616b65206e6f74207365740000000000000000000000000000000000600082015250565b6000611563600f836110a7565b915061156e8261152d565b602082019050919050565b6000602082019050818103600083015261159281611556565b9050919050565b7f4c4f4b45593a2045786365656473204c696d6974000000000000000000000000600082015250565b60006115cf6014836110a7565b91506115da82611599565b602082019050919050565b600060208201905081810360008301526115fe816115c2565b9050919050565b7f45524332303a2064656372656173656420616c6c6f77616e63652062656c6f7760008201527f207a65726f000000000000000000000000000000000000000000000000000000602082015250565b60006116616025836110a7565b915061166c82611605565b604082019050919050565b6000602082019050818103600083015261169081611654565b9050919050565b7f4c6f5374616b6520616c72656164792073657400000000000000000000000000600082015250565b60006116cd6013836110a7565b91506116d882611697565b602082019050919050565b600060208201905081810360008301526116fc816116c0565b9050919050565b7f45524332303a20617070726f76652066726f6d20746865207a65726f2061646460008201527f7265737300000000000000000000000000000000000000000000000000000000602082015250565b600061175f6024836110a7565b915061176a82611703565b604082019050919050565b6000602082019050818103600083015261178e81611752565b9050919050565b7f45524332303a20617070726f766520746f20746865207a65726f20616464726560008201527f7373000000000000000000000000000000000000000000000000000000000000602082015250565b60006117f16022836110a7565b91506117fc82611795565b604082019050919050565b60006020820190508181036000830152611820816117e4565b9050919050565b7f45524332303a20696e73756666696369656e7420616c6c6f77616e6365000000600082015250565b600061185d601d836110a7565b915061186882611827565b602082019050919050565b6000602082019050818103600083015261188c81611850565b9050919050565b7f45524332303a207472616e736665722066726f6d20746865207a65726f20616460008201527f6472657373000000000000000000000000000000000000000000000000000000602082015250565b60006118ef6025836110a7565b91506118fa82611893565b604082019050919050565b6000602082019050818103600083015261191e816118e2565b9050919050565b7f45524332303a207472616e7366657220746f20746865207a65726f206164647260008201527f6573730000000000000000000000000000000000000000000000000000000000602082015250565b60006119816023836110a7565b915061198c82611925565b604082019050919050565b600060208201905081810360008301526119b081611974565b9050919050565b7f45524332303a207472616e7366657220616d6f756e742065786365656473206260008201527f616c616e63650000000000000000000000000000000000000000000000000000602082015250565b6000611a136026836110a7565b9150611a1e826119b7565b604082019050919050565b60006020820190508181036000830152611a4281611a06565b9050919050565b7f45524332303a206d696e7420746f20746865207a65726f206164647265737300600082015250565b6000611a7f601f836110a7565b9150611a8a82611a49565b602082019050919050565b60006020820190508181036000830152611aae81611a72565b905091905056fea2646970667358221220475657fbd3e7ce62fd747cf3daf314ddd7c8921909e2d5b1e62e181a72cddfad64736f6c63430008110033",
  "linkReferences": {},
  "deployedLinkReferences": {}
}