{
  "_format": "hh-sol-artifact-1",
  "contractName": "LoStake",
  "sourceName": "contracts/LoStake.sol",
  "abi": [
    {
      "inputs": [],
      "stateMutability": "nonpayable",
      "type": "constructor"
    },
    {
      "anonymous": false,
      "inputs": [
        {
          "indexed": true,
          "internalType": "address",
          "name": "staker",
          "type": "address"
        },
        {
          "indexed": false,
          "internalType": "uint256",
          "name": "amount",
          "type": "uint256"
        },
        {
          "indexed": false,
          "internalType": "address",
          "name": "current_pair",
          "type": "address"
        },
        {
          "indexed": false,
          "internalType": "uint256",
          "name": "timestamp",
          "type": "uint256"
        }
      ],
      "name": "Staked",
      "type": "event"
    },
    {
      "inputs": [
        {
          "internalType": "uint256",
          "name": "id",
          "type": "uint256"
        },
        {
          "internalType": "address",
          "name": "pair_address",
          "type": "address"
        },
        {
          "internalType": "string",
          "name": "pair_name",
          "type": "string"
        }
      ],
      "name": "addTokenId",
      "outputs": [
        {
          "internalType": "bool",
          "name": "",
          "type": "bool"
        }
      ],
      "stateMutability": "nonpayable",
      "type": "function"
    },
    {
      "inputs": [
        {
          "internalType": "uint256",
          "name": "index",
          "type": "uint256"
        },
        {
          "internalType": "uint256",
          "name": "id",
          "type": "uint256"
        }
      ],
      "name": "setCurrentPairAddress",
      "outputs": [
        {
          "internalType": "bool",
          "name": "",
          "type": "bool"
        }
      ],
      "stateMutability": "nonpayable",
      "type": "function"
    },
    {
      "inputs": [
        {
          "internalType": "address",
          "name": "erc20",
          "type": "address"
        }
      ],
      "name": "setLoKeyERC20",
      "outputs": [
        {
          "internalType": "bool",
          "name": "",
          "type": "bool"
        }
      ],
      "stateMutability": "nonpayable",
      "type": "function"
    },
    {
      "inputs": [
        {
          "internalType": "uint256",
          "name": "amount_lokey_desired",
          "type": "uint256"
        },
        {
          "internalType": "uint256",
          "name": "amount_pair_desired",
          "type": "uint256"
        },
        {
          "internalType": "uint256",
          "name": "amount_lokey_min",
          "type": "uint256"
        },
        {
          "internalType": "uint256",
          "name": "amount_pair_min",
          "type": "uint256"
        },
        {
          "internalType": "uint256",
          "name": "deadline",
          "type": "uint256"
        },
        {
          "internalType": "string",
          "name": "city",
          "type": "string"
        }
      ],
      "name": "stake",
      "outputs": [
        {
          "internalType": "bool",
          "name": "",
          "type": "bool"
        },
        {
          "internalType": "string",
          "name": "",
          "type": "string"
        }
      ],
      "stateMutability": "payable",
      "type": "function"
    },
    {
      "inputs": [
        {
          "internalType": "bool",
          "name": "mode",
          "type": "bool"
        }
      ],
      "name": "startStopStake",
      "outputs": [
        {
          "internalType": "string",
          "name": "response",
          "type": "string"
        }
      ],
      "stateMutability": "nonpayable",
      "type": "function"
    },
    {
      "inputs": [
        {
          "internalType": "uint256",
          "name": "liquidity",
          "type": "uint256"
        },
        {
          "internalType": "uint256",
          "name": "amount_lokey_min",
          "type": "uint256"
        },
        {
          "internalType": "uint256",
          "name": "amount_pair_min",
          "type": "uint256"
        },
        {
          "internalType": "uint256",
          "name": "deadline",
          "type": "uint256"
        }
      ],
      "name": "unstake",
      "outputs": [
        {
          "internalType": "bool",
          "name": "",
          "type": "bool"
        },
        {
          "internalType": "string",
          "name": "",
          "type": "string"
        }
      ],
      "stateMutability": "nonpayable",
      "type": "function"
    },
    {
      "inputs": [],
      "name": "viewAdmin",
      "outputs": [
        {
          "internalType": "address",
          "name": "",
          "type": "address"
        }
      ],
      "stateMutability": "view",
      "type": "function"
    },
    {
      "inputs": [],
      "name": "viewAllPairAddresses",
      "outputs": [
        {
          "internalType": "address[]",
          "name": "all",
          "type": "address[]"
        }
      ],
      "stateMutability": "view",
      "type": "function"
    },
    {
      "inputs": [],
      "name": "viewAllTokenIds",
      "outputs": [
        {
          "internalType": "uint256[]",
          "name": "all",
          "type": "uint256[]"
        }
      ],
      "stateMutability": "view",
      "type": "function"
    },
    {
      "inputs": [],
      "name": "viewCurrentPairAddress",
      "outputs": [
        {
          "internalType": "address",
          "name": "current",
          "type": "address"
        }
      ],
      "stateMutability": "view",
      "type": "function"
    },
    {
      "inputs": [],
      "name": "viewERC20Address",
      "outputs": [
        {
          "internalType": "address",
          "name": "",
          "type": "address"
        }
      ],
      "stateMutability": "view",
      "type": "function"
    },
    {
      "inputs": [],
      "name": "viewStakeState",
      "outputs": [
        {
          "internalType": "bool",
          "name": "",
          "type": "bool"
        }
      ],
      "stateMutability": "view",
      "type": "function"
    },
    {
      "inputs": [],
      "name": "viewTokenIdInfo",
      "outputs": [
        {
          "components": [
            {
              "internalType": "uint256",
              "name": "token_id",
              "type": "uint256"
            },
            {
              "internalType": "address",
              "name": "pair_address",
              "type": "address"
            },
            {
              "internalType": "string",
              "name": "pair_name",
              "type": "string"
            }
          ],
          "internalType": "struct LoStake.TokenIdInfo",
          "name": "",
          "type": "tuple"
        }
      ],
      "stateMutability": "view",
      "type": "function"
    },
    {
      "inputs": [],
      "name": "withdraw",
      "outputs": [
        {
          "internalType": "bool",
          "name": "",
          "type": "bool"
        }
      ],
      "stateMutability": "nonpayable",
      "type": "function"
    }
  ],
  "bytecode": "0x608060405273c36442b4a4522e871399cd717abdd847ab11fe88600160006101000a81548173ffffffffffffffffffffffffffffffffffffffff021916908373ffffffffffffffffffffffffffffffffffffffff1602179055503480156200006657600080fd5b5033600260006101000a81548173ffffffffffffffffffffffffffffffffffffffff021916908373ffffffffffffffffffffffffffffffffffffffff16021790555073a0b86991c6218b36c1d19d4a2e9eb0ce3606eb48600460006101000a81548173ffffffffffffffffffffffffffffffffffffffff021916908373ffffffffffffffffffffffffffffffffffffffff1602179055506003600460009054906101000a900473ffffffffffffffffffffffffffffffffffffffff169080600181540180825580915050600190039060005260206000200160009091909190916101000a81548173ffffffffffffffffffffffffffffffffffffffff021916908373ffffffffffffffffffffffffffffffffffffffff16021790555060056205561190806001815401808255809150506001900390600052602060002001600090919091909150556005600081548110620001c657620001c5620002ee565b5b9060005260206000200154600681905550600060405180606001604052806006548152602001600460009054906101000a900473ffffffffffffffffffffffffffffffffffffffff1673ffffffffffffffffffffffffffffffffffffffff1681526020016040518060400160405280600481526020017f55534443000000000000000000000000000000000000000000000000000000008152508152509050806008600060065481526020019081526020016000206000820151816000015560208201518160010160006101000a81548173ffffffffffffffffffffffffffffffffffffffff021916908373ffffffffffffffffffffffffffffffffffffffff1602179055506040820151816002019081620002e3919062000597565b50905050506200067e565b7f4e487b7100000000000000000000000000000000000000000000000000000000600052603260045260246000fd5b600081519050919050565b7f4e487b7100000000000000000000000000000000000000000000000000000000600052604160045260246000fd5b7f4e487b7100000000000000000000000000000000000000000000000000000000600052602260045260246000fd5b600060028204905060018216806200039f57607f821691505b602082108103620003b557620003b462000357565b5b50919050565b60008190508160005260206000209050919050565b60006020601f8301049050919050565b600082821b905092915050565b6000600883026200041f7fffffffffffffffffffffffffffffffffffffffffffffffffffffffffffffffff82620003e0565b6200042b8683620003e0565b95508019841693508086168417925050509392505050565b6000819050919050565b6000819050919050565b600062000478620004726200046c8462000443565b6200044d565b62000443565b9050919050565b6000819050919050565b620004948362000457565b620004ac620004a3826200047f565b848454620003ed565b825550505050565b600090565b620004c3620004b4565b620004d081848462000489565b505050565b5b81811015620004f857620004ec600082620004b9565b600181019050620004d6565b5050565b601f82111562000547576200051181620003bb565b6200051c84620003d0565b810160208510156200052c578190505b620005446200053b85620003d0565b830182620004d5565b50505b505050565b600082821c905092915050565b60006200056c600019846008026200054c565b1980831691505092915050565b600062000587838362000559565b9150826002028217905092915050565b620005a2826200031d565b67ffffffffffffffff811115620005be57620005bd62000328565b5b620005ca825462000386565b620005d7828285620004fc565b600060209050601f8311600181146200060f5760008415620005fa578287015190505b62000606858262000579565b86555062000676565b601f1984166200061f86620003bb565b60005b82811015620006495784890151825560018201915060208501945060208101905062000622565b8683101562000669578489015162000665601f89168262000559565b8355505b6001600288020188555050505b505050505050565b613628806200068e6000396000f3fe6080604052600436106100dd5760003560e01c8063978fa8c91161007f578063a6b5558111610059578063a6b55581146102c6578063de9437ef146102f1578063e6b1c1b71461032e578063eb0852111461036c576100dd565b8063978fa8c9146102335780639910ed9a1461025e578063995ba39814610289576100dd565b806327f85569116100bb57806327f855691461018757806338bbf96e146101b25780633ccfd60b146101dd57806362af2ab714610208576100dd565b80630b74b104146100e25780630bf1aa7a1461011f5780631cbe61c41461014a575b600080fd5b3480156100ee57600080fd5b5061010960048036038101906101049190612208565b61039d565b6040516101169190612250565b60405180910390f35b34801561012b57600080fd5b50610134610478565b604051610141919061227a565b60405180910390f35b34801561015657600080fd5b50610171600480360381019061016c91906122cb565b6104a2565b60405161017e9190612250565b60405180910390f35b34801561019357600080fd5b5061019c61067c565b6040516101a99190612409565b60405180910390f35b3480156101be57600080fd5b506101c76107a1565b6040516101d491906124da565b60405180910390f35b3480156101e957600080fd5b506101f261082f565b6040516101ff9190612250565b60405180910390f35b34801561021457600080fd5b5061021d610b1a565b60405161022a9190612250565b60405180910390f35b34801561023f57600080fd5b50610248610b31565b604051610255919061227a565b60405180910390f35b34801561026a57600080fd5b50610273610b5a565b604051610280919061227a565b60405180910390f35b34801561029557600080fd5b506102b060048036038101906102ab9190612528565b610b84565b6040516102bd919061259f565b60405180910390f35b3480156102d257600080fd5b506102db610dd4565b6040516102e89190612670565b60405180910390f35b3480156102fd57600080fd5b50610318600480360381019061031391906127c7565b610e2c565b6040516103259190612250565b60405180910390f35b34801561033a57600080fd5b5061035560048036038101906103509190612836565b6111a7565b60405161036392919061289d565b60405180910390f35b610386600480360381019061038191906128cd565b611452565b60405161039492919061289d565b60405180910390f35b6000600260009054906101000a900473ffffffffffffffffffffffffffffffffffffffff1673ffffffffffffffffffffffffffffffffffffffff163373ffffffffffffffffffffffffffffffffffffffff161461042f576040517f08c379a0000000000000000000000000000000000000000000000000000000008152600401610426906129c2565b60405180910390fd5b816000806101000a81548173ffffffffffffffffffffffffffffffffffffffff021916908373ffffffffffffffffffffffffffffffffffffffff16021790555060019050919050565b6000600460009054906101000a900473ffffffffffffffffffffffffffffffffffffffff16905090565b6000600260009054906101000a900473ffffffffffffffffffffffffffffffffffffffff1673ffffffffffffffffffffffffffffffffffffffff163373ffffffffffffffffffffffffffffffffffffffff1614610534576040517f08c379a000000000000000000000000000000000000000000000000000000000815260040161052b906129c2565b60405180910390fd5b600060038054806020026020016040519081016040528092919081815260200182805480156105b857602002820191906000526020600020905b8160009054906101000a900473ffffffffffffffffffffffffffffffffffffffff1673ffffffffffffffffffffffffffffffffffffffff168152602001906001019080831161056e575b505050505090506001846105cc9190612a11565b8151101561060f576040517f08c379a000000000000000000000000000000000000000000000000000000000815260040161060690612a91565b60405180910390fd5b80848151811061062257610621612ab1565b5b6020026020010151600460006101000a81548173ffffffffffffffffffffffffffffffffffffffff021916908373ffffffffffffffffffffffffffffffffffffffff16021790555082600681905550600191505092915050565b61068461215f565b6000600860006006548152602001908152602001600020604051806060016040529081600082015481526020016001820160009054906101000a900473ffffffffffffffffffffffffffffffffffffffff1673ffffffffffffffffffffffffffffffffffffffff1673ffffffffffffffffffffffffffffffffffffffff16815260200160028201805461071690612b0f565b80601f016020809104026020016040519081016040528092919081815260200182805461074290612b0f565b801561078f5780601f106107645761010080835404028352916020019161078f565b820191906000526020600020905b81548152906001019060200180831161077257829003601f168201915b50505050508152505090508091505090565b6060600380548060200260200160405190810160405280929190818152602001828054801561082557602002820191906000526020600020905b8160009054906101000a900473ffffffffffffffffffffffffffffffffffffffff1673ffffffffffffffffffffffffffffffffffffffff16815260200190600101908083116107db575b5050505050905090565b6000600260009054906101000a900473ffffffffffffffffffffffffffffffffffffffff1673ffffffffffffffffffffffffffffffffffffffff163373ffffffffffffffffffffffffffffffffffffffff16146108c1576040517f08c379a00000000000000000000000000000000000000000000000000000000081526004016108b8906129c2565b60405180910390fd5b60008060009054906101000a900473ffffffffffffffffffffffffffffffffffffffff1673ffffffffffffffffffffffffffffffffffffffff166370a08231306040518263ffffffff1660e01b815260040161091d919061227a565b602060405180830381865afa15801561093a573d6000803e3d6000fd5b505050506040513d601f19601f8201168201806040525081019061095e9190612b55565b905060008054906101000a900473ffffffffffffffffffffffffffffffffffffffff1673ffffffffffffffffffffffffffffffffffffffff1663a9059cbb600260009054906101000a900473ffffffffffffffffffffffffffffffffffffffff16836040518363ffffffff1660e01b81526004016109dd929190612b91565b6020604051808303816000875af1925050508015610a1957506040513d601f19601f82011682018060405250810190610a169190612bcf565b60015b610b1157610a25612c09565b806308c379a003610a815750610a39612c2b565b80610a445750610a83565b806040517f08c379a0000000000000000000000000000000000000000000000000000000008152600401610a78919061259f565b60405180910390fd5b505b3d8060008114610aaf576040519150601f19603f3d011682016040523d82523d6000602084013e610ab4565b606091505b5080604051602001610ac69190612d02565b6040516020818303038152906040526040517f08c379a0000000000000000000000000000000000000000000000000000000008152600401610b08919061259f565b60405180910390fd5b50600191505090565b6000600260149054906101000a900460ff16905090565b60008060009054906101000a900473ffffffffffffffffffffffffffffffffffffffff16905090565b6000600260009054906101000a900473ffffffffffffffffffffffffffffffffffffffff16905090565b6060600260009054906101000a900473ffffffffffffffffffffffffffffffffffffffff1673ffffffffffffffffffffffffffffffffffffffff163373ffffffffffffffffffffffffffffffffffffffff1614610c16576040517f08c379a0000000000000000000000000000000000000000000000000000000008152600401610c0d906129c2565b60405180910390fd5b811515600260149054906101000a900460ff161515141582604051602001610c3e9190612db8565b60405160208183030381529060405290610c8e576040517f08c379a0000000000000000000000000000000000000000000000000000000008152600401610c85919061259f565b60405180910390fd5b506001151582151503610d3157600073ffffffffffffffffffffffffffffffffffffffff16600460009054906101000a900473ffffffffffffffffffffffffffffffffffffffff1673ffffffffffffffffffffffffffffffffffffffff1603610d2c576040517f08c379a0000000000000000000000000000000000000000000000000000000008152600401610d2390612e2a565b60405180910390fd5b610d74565b6000600460006101000a81548173ffffffffffffffffffffffffffffffffffffffff021916908373ffffffffffffffffffffffffffffffffffffffff1602179055505b81600260146101000a81548160ff02191690831515021790555081604051602001610d9f9190612e4a565b604051602081830303815290604052604051602001610dbe9190612ebc565b6040516020818303038152906040529050919050565b60606005805480602002602001604051908101604052809291908181526020018280548015610e2257602002820191906000526020600020905b815481526020019060010190808311610e0e575b5050505050905090565b6000600260009054906101000a900473ffffffffffffffffffffffffffffffffffffffff1673ffffffffffffffffffffffffffffffffffffffff163373ffffffffffffffffffffffffffffffffffffffff1614610ebe576040517f08c379a0000000000000000000000000000000000000000000000000000000008152600401610eb5906129c2565b60405180910390fd5b600060086000868152602001908152602001600020604051806060016040529081600082015481526020016001820160009054906101000a900473ffffffffffffffffffffffffffffffffffffffff1673ffffffffffffffffffffffffffffffffffffffff1673ffffffffffffffffffffffffffffffffffffffff168152602001600282018054610f4e90612b0f565b80601f0160208091040260200160405190810160405280929190818152602001828054610f7a90612b0f565b8015610fc75780601f10610f9c57610100808354040283529160200191610fc7565b820191906000526020600020905b815481529060010190602001808311610faa57829003601f168201915b5050505050815250509050600073ffffffffffffffffffffffffffffffffffffffff16816020015173ffffffffffffffffffffffffffffffffffffffff1614611045576040517f08c379a000000000000000000000000000000000000000000000000000000000815260040161103c90612f2e565b60405180910390fd5b600073ffffffffffffffffffffffffffffffffffffffff168473ffffffffffffffffffffffffffffffffffffffff16036110b4576040517f08c379a00000000000000000000000000000000000000000000000000000000081526004016110ab90612f9a565b60405180910390fd5b600060405180606001604052808781526020018673ffffffffffffffffffffffffffffffffffffffff168152602001858152509050600586908060018154018082558091505060019003906000526020600020016000909190919091505580600860008881526020019081526020016000206000820151816000015560208201518160010160006101000a81548173ffffffffffffffffffffffffffffffffffffffff021916908373ffffffffffffffffffffffffffffffffffffffff160217905550604082015181600201908161118c9190613166565b5090505061119985611f29565b506001925050509392505050565b60006060600073ffffffffffffffffffffffffffffffffffffffff16600460009054906101000a900473ffffffffffffffffffffffffffffffffffffffff1673ffffffffffffffffffffffffffffffffffffffff160361123c576040517f08c379a000000000000000000000000000000000000000000000000000000000815260040161123390613284565b60405180910390fd5b60011515600260149054906101000a900460ff16151514611292576040517f08c379a0000000000000000000000000000000000000000000000000000000008152600401611289906132f0565b60405180910390fd5b600080600160009054906101000a900473ffffffffffffffffffffffffffffffffffffffff1673ffffffffffffffffffffffffffffffffffffffff16600654898989896040516024016112e9959493929190613310565b6040516020818303038152906040527f97d6273f000000000000000000000000000000000000000000000000000000007bffffffffffffffffffffffffffffffffffffffffffffffffffffffff19166020820180517bffffffffffffffffffffffffffffffffffffffffffffffffffffffff83818316178352505050506040516113739190612d02565b6000604051808303816000865af19150503d80600081146113b0576040519150601f19603f3d011682016040523d82523d6000602084013e6113b5565b606091505b5091509150600015158215150361142257806040516020016113d79190612d02565b6040516020818303038152906040526040517f08c379a0000000000000000000000000000000000000000000000000000000008152600401611419919061259f565b60405180910390fd5b81816040516020016114349190612d02565b60405160208183030381529060405293509350505094509492505050565b60006060600073ffffffffffffffffffffffffffffffffffffffff16600460009054906101000a900473ffffffffffffffffffffffffffffffffffffffff1673ffffffffffffffffffffffffffffffffffffffff16036114e7576040517f08c379a00000000000000000000000000000000000000000000000000000000081526004016114de90613284565b60405180910390fd5b60011515600260149054906101000a900460ff1615151461153d576040517f08c379a0000000000000000000000000000000000000000000000000000000008152600401611534906132f0565b60405180910390fd5b6000600460009054906101000a900473ffffffffffffffffffffffffffffffffffffffff1673ffffffffffffffffffffffffffffffffffffffff16600160009054906101000a900473ffffffffffffffffffffffffffffffffffffffff16346040516024016115ad929190612b91565b6040516020818303038152906040527f095ea7b3000000000000000000000000000000000000000000000000000000007bffffffffffffffffffffffffffffffffffffffffffffffffffffffff19166020820180517bffffffffffffffffffffffffffffffffffffffffffffffffffffffff83818316178352505050506040516116379190612d02565b6000604051808303816000865af19150503d8060008114611674576040519150601f19603f3d011682016040523d82523d6000602084013e611679565b606091505b5050905060001515811515036116e357604051602001611698906133af565b6040516020818303038152906040526040517f08c379a00000000000000000000000000000000000000000000000000000000081526004016116da919061259f565b60405180910390fd5b60008054906101000a900473ffffffffffffffffffffffffffffffffffffffff1673ffffffffffffffffffffffffffffffffffffffff1663a0712d6860023461172c91906133c4565b6040518263ffffffff1660e01b81526004016117489190613406565b6020604051808303816000875af192505050801561178457506040513d601f19601f820116820180604052508101906117819190612bcf565b60015b61187c57611790612c09565b806308c379a0036117ec57506117a4612c2b565b806117af57506117ee565b806040517f08c379a00000000000000000000000000000000000000000000000000000000081526004016117e3919061259f565b60405180910390fd5b505b3d806000811461181a576040519150601f19603f3d011682016040523d82523d6000602084013e61181f565b606091505b50806040516020016118319190612d02565b6040516020818303038152906040526040517f08c379a0000000000000000000000000000000000000000000000000000000008152600401611873919061259f565b60405180910390fd5b60008054906101000a900473ffffffffffffffffffffffffffffffffffffffff1673ffffffffffffffffffffffffffffffffffffffff1663095ea7b3600160009054906101000a900473ffffffffffffffffffffffffffffffffffffffff16346040518363ffffffff1660e01b81526004016118f9929190612b91565b6020604051808303816000875af1158015611918573d6000803e3d6000fd5b505050506040513d601f19601f8201168201806040525081019061193c9190612bcf565b50600080600160009054906101000a900473ffffffffffffffffffffffffffffffffffffffff1673ffffffffffffffffffffffffffffffffffffffff166006548d8d8d8d8d60405160240161199696959493929190613421565b6040516020818303038152906040527f12d7b2c4000000000000000000000000000000000000000000000000000000007bffffffffffffffffffffffffffffffffffffffffffffffffffffffff19166020820180517bffffffffffffffffffffffffffffffffffffffffffffffffffffffff8381831617835250505050604051611a209190612d02565b6000604051808303816000865af19150503d8060008114611a5d576040519150601f19603f3d011682016040523d82523d6000602084013e611a62565b606091505b50915091506000151582151503611acf5780604051602001611a8491906134ce565b6040516020818303038152906040526040517f08c379a0000000000000000000000000000000000000000000000000000000008152600401611ac6919061259f565b60405180910390fd5b6000600760003373ffffffffffffffffffffffffffffffffffffffff1673ffffffffffffffffffffffffffffffffffffffff16815260200190815260200160002088604051611b1e91906134f0565b90815260200160405180910390206040518060800160405290816000820160009054906101000a900473ffffffffffffffffffffffffffffffffffffffff1673ffffffffffffffffffffffffffffffffffffffff1673ffffffffffffffffffffffffffffffffffffffff168152602001600182018054611b9d90612b0f565b80601f0160208091040260200160405190810160405280929190818152602001828054611bc990612b0f565b8015611c165780601f10611beb57610100808354040283529160200191611c16565b820191906000526020600020905b815481529060010190602001808311611bf957829003601f168201915b50505050508152602001600282015481526020016003820160009054906101000a900460ff1615151515815250509050600115158160600151151503611d5a573481604001818151611c689190612a11565b9150818152505080600760003373ffffffffffffffffffffffffffffffffffffffff1673ffffffffffffffffffffffffffffffffffffffff16815260200190815260200160002089604051611cbd91906134f0565b908152602001604051809103902060008201518160000160006101000a81548173ffffffffffffffffffffffffffffffffffffffff021916908373ffffffffffffffffffffffffffffffffffffffff1602179055506020820151816001019081611d279190613166565b506040820151816002015560608201518160030160006101000a81548160ff021916908315150217905550905050611e80565b600060405180608001604052803373ffffffffffffffffffffffffffffffffffffffff1681526020018a815260200134815260200160011515815250905080600760003373ffffffffffffffffffffffffffffffffffffffff1673ffffffffffffffffffffffffffffffffffffffff1681526020019081526020016000208a604051611de691906134f0565b908152602001604051809103902060008201518160000160006101000a81548173ffffffffffffffffffffffffffffffffffffffff021916908373ffffffffffffffffffffffffffffffffffffffff1602179055506020820151816001019081611e509190613166565b506040820151816002015560608201518160030160006101000a81548160ff021916908315150217905550905050505b3373ffffffffffffffffffffffffffffffffffffffff167ff65271afc35201e83c229b7b581d7fde59bfe7b7dd943e8719fc8c5f5ada63f634600460009054906101000a900473ffffffffffffffffffffffffffffffffffffffff1642604051611eec93929190613507565b60405180910390a28282604051602001611f069190612d02565b604051602081830303815290604052965096505050505050965096945050505050565b6000600260009054906101000a900473ffffffffffffffffffffffffffffffffffffffff1673ffffffffffffffffffffffffffffffffffffffff163373ffffffffffffffffffffffffffffffffffffffff1614611fbb576040517f08c379a0000000000000000000000000000000000000000000000000000000008152600401611fb2906129c2565b60405180910390fd5b6000600380548060200260200160405190810160405280929190818152602001828054801561203f57602002820191906000526020600020905b8160009054906101000a900473ffffffffffffffffffffffffffffffffffffffff1673ffffffffffffffffffffffffffffffffffffffff1681526020019060010190808311611ff5575b5050505050905060005b6003805490508110156120f1578373ffffffffffffffffffffffffffffffffffffffff168282815181106120805761207f612ab1565b5b602002602001015173ffffffffffffffffffffffffffffffffffffffff16036120de576040517f08c379a00000000000000000000000000000000000000000000000000000000081526004016120d59061358a565b60405180910390fd5b80806120e9906135aa565b915050612049565b506003839080600181540180825580915050600190039060005260206000200160009091909190916101000a81548173ffffffffffffffffffffffffffffffffffffffff021916908373ffffffffffffffffffffffffffffffffffffffff1602179055506001915050919050565b604051806060016040528060008152602001600073ffffffffffffffffffffffffffffffffffffffff168152602001606081525090565b6000604051905090565b600080fd5b600080fd5b600073ffffffffffffffffffffffffffffffffffffffff82169050919050565b60006121d5826121aa565b9050919050565b6121e5816121ca565b81146121f057600080fd5b50565b600081359050612202816121dc565b92915050565b60006020828403121561221e5761221d6121a0565b5b600061222c848285016121f3565b91505092915050565b60008115159050919050565b61224a81612235565b82525050565b60006020820190506122656000830184612241565b92915050565b612274816121ca565b82525050565b600060208201905061228f600083018461226b565b92915050565b6000819050919050565b6122a881612295565b81146122b357600080fd5b50565b6000813590506122c58161229f565b92915050565b600080604083850312156122e2576122e16121a0565b5b60006122f0858286016122b6565b9250506020612301858286016122b6565b9150509250929050565b61231481612295565b82525050565b612323816121ca565b82525050565b600081519050919050565b600082825260208201905092915050565b60005b83811015612363578082015181840152602081019050612348565b60008484015250505050565b6000601f19601f8301169050919050565b600061238b82612329565b6123958185612334565b93506123a5818560208601612345565b6123ae8161236f565b840191505092915050565b60006060830160008301516123d1600086018261230b565b5060208301516123e4602086018261231a565b50604083015184820360408601526123fc8282612380565b9150508091505092915050565b6000602082019050818103600083015261242381846123b9565b905092915050565b600081519050919050565b600082825260208201905092915050565b6000819050602082019050919050565b6000612463838361231a565b60208301905092915050565b6000602082019050919050565b60006124878261242b565b6124918185612436565b935061249c83612447565b8060005b838110156124cd5781516124b48882612457565b97506124bf8361246f565b9250506001810190506124a0565b5085935050505092915050565b600060208201905081810360008301526124f4818461247c565b905092915050565b61250581612235565b811461251057600080fd5b50565b600081359050612522816124fc565b92915050565b60006020828403121561253e5761253d6121a0565b5b600061254c84828501612513565b91505092915050565b600082825260208201905092915050565b600061257182612329565b61257b8185612555565b935061258b818560208601612345565b6125948161236f565b840191505092915050565b600060208201905081810360008301526125b98184612566565b905092915050565b600081519050919050565b600082825260208201905092915050565b6000819050602082019050919050565b60006125f9838361230b565b60208301905092915050565b6000602082019050919050565b600061261d826125c1565b61262781856125cc565b9350612632836125dd565b8060005b8381101561266357815161264a88826125ed565b975061265583612605565b925050600181019050612636565b5085935050505092915050565b6000602082019050818103600083015261268a8184612612565b905092915050565b600080fd5b600080fd5b7f4e487b7100000000000000000000000000000000000000000000000000000000600052604160045260246000fd5b6126d48261236f565b810181811067ffffffffffffffff821117156126f3576126f261269c565b5b80604052505050565b6000612706612196565b905061271282826126cb565b919050565b600067ffffffffffffffff8211156127325761273161269c565b5b61273b8261236f565b9050602081019050919050565b82818337600083830152505050565b600061276a61276584612717565b6126fc565b90508281526020810184848401111561278657612785612697565b5b612791848285612748565b509392505050565b600082601f8301126127ae576127ad612692565b5b81356127be848260208601612757565b91505092915050565b6000806000606084860312156127e0576127df6121a0565b5b60006127ee868287016122b6565b93505060206127ff868287016121f3565b925050604084013567ffffffffffffffff8111156128205761281f6121a5565b5b61282c86828701612799565b9150509250925092565b600080600080608085870312156128505761284f6121a0565b5b600061285e878288016122b6565b945050602061286f878288016122b6565b9350506040612880878288016122b6565b9250506060612891878288016122b6565b91505092959194509250565b60006040820190506128b26000830185612241565b81810360208301526128c48184612566565b90509392505050565b60008060008060008060c087890312156128ea576128e96121a0565b5b60006128f889828a016122b6565b965050602061290989828a016122b6565b955050604061291a89828a016122b6565b945050606061292b89828a016122b6565b935050608061293c89828a016122b6565b92505060a087013567ffffffffffffffff81111561295d5761295c6121a5565b5b61296989828a01612799565b9150509295509295509295565b7f556e617574686f72697a65640000000000000000000000000000000000000000600082015250565b60006129ac600c83612555565b91506129b782612976565b602082019050919050565b600060208201905081810360008301526129db8161299f565b9050919050565b7f4e487b7100000000000000000000000000000000000000000000000000000000600052601160045260246000fd5b6000612a1c82612295565b9150612a2783612295565b9250828201905080821115612a3f57612a3e6129e2565b5b92915050565b7f4f7574206f6620626f756e647300000000000000000000000000000000000000600082015250565b6000612a7b600d83612555565b9150612a8682612a45565b602082019050919050565b60006020820190508181036000830152612aaa81612a6e565b9050919050565b7f4e487b7100000000000000000000000000000000000000000000000000000000600052603260045260246000fd5b7f4e487b7100000000000000000000000000000000000000000000000000000000600052602260045260246000fd5b60006002820490506001821680612b2757607f821691505b602082108103612b3a57612b39612ae0565b5b50919050565b600081519050612b4f8161229f565b92915050565b600060208284031215612b6b57612b6a6121a0565b5b6000612b7984828501612b40565b91505092915050565b612b8b81612295565b82525050565b6000604082019050612ba6600083018561226b565b612bb36020830184612b82565b9392505050565b600081519050612bc9816124fc565b92915050565b600060208284031215612be557612be46121a0565b5b6000612bf384828501612bba565b91505092915050565b60008160e01c9050919050565b600060033d1115612c285760046000803e612c25600051612bfc565b90505b90565b600060443d10612cb857612c3d612196565b60043d036004823e80513d602482011167ffffffffffffffff82111715612c65575050612cb8565b808201805167ffffffffffffffff811115612c835750505050612cb8565b80602083010160043d038501811115612ca0575050505050612cb8565b612caf826020018501866126cb565b82955050505050505b90565b600081519050919050565b600081905092915050565b6000612cdc82612cbb565b612ce68185612cc6565b9350612cf6818560208601612345565b80840191505092915050565b6000612d0e8284612cd1565b915081905092915050565b600081905092915050565b7f4d6f64652069732073657420746f000000000000000000000000000000000000600082015250565b6000612d5a600e83612d19565b9150612d6582612d24565b600e82019050919050565b60008160f81b9050919050565b6000612d8882612d70565b9050919050565b6000612d9a82612d7d565b9050919050565b612db2612dad82612235565b612d8f565b82525050565b6000612dc382612d4d565b9150612dcf8284612da1565b60018201915081905092915050565b7f43757272656e742070616972206e6f7420736574000000000000000000000000600082015250565b6000612e14601483612555565b9150612e1f82612dde565b602082019050919050565b60006020820190508181036000830152612e4381612e07565b9050919050565b6000612e568284612da1565b60018201915081905092915050565b7f5374616b6520656e61626c65643a000000000000000000000000000000000000815250565b6000612e9682612329565b612ea08185612d19565b9350612eb0818560208601612345565b80840191505092915050565b6000612ec782612e65565b600e82019150612ed78284612e8b565b915081905092915050565b7f546f6b656e20494420616c726561647920616464656400000000000000000000600082015250565b6000612f18601683612555565b9150612f2382612ee2565b602082019050919050565b60006020820190508181036000830152612f4781612f0b565b9050919050565b7f496e76616c696420706169722061646472657373000000000000000000000000600082015250565b6000612f84601483612555565b9150612f8f82612f4e565b602082019050919050565b60006020820190508181036000830152612fb381612f77565b9050919050565b60008190508160005260206000209050919050565b60006020601f8301049050919050565b600082821b905092915050565b60006008830261301c7fffffffffffffffffffffffffffffffffffffffffffffffffffffffffffffffff82612fdf565b6130268683612fdf565b95508019841693508086168417925050509392505050565b6000819050919050565b600061306361305e61305984612295565b61303e565b612295565b9050919050565b6000819050919050565b61307d83613048565b6130916130898261306a565b848454612fec565b825550505050565b600090565b6130a6613099565b6130b1818484613074565b505050565b5b818110156130d5576130ca60008261309e565b6001810190506130b7565b5050565b601f82111561311a576130eb81612fba565b6130f484612fcf565b81016020851015613103578190505b61311761310f85612fcf565b8301826130b6565b50505b505050565b600082821c905092915050565b600061313d6000198460080261311f565b1980831691505092915050565b6000613156838361312c565b9150826002028217905092915050565b61316f82612329565b67ffffffffffffffff8111156131885761318761269c565b5b6131928254612b0f565b61319d8282856130d9565b600060209050601f8311600181146131d057600084156131be578287015190505b6131c8858261314a565b865550613230565b601f1984166131de86612fba565b60005b82811015613206578489015182556001820191506020850194506020810190506131e1565b86831015613223578489015161321f601f89168261312c565b8355505b6001600288020188555050505b505050505050565b7f43757272656e742050616972206e6f7420736574000000000000000000000000600082015250565b600061326e601483612555565b915061327982613238565b602082019050919050565b6000602082019050818103600083015261329d81613261565b9050919050565b7f4e6f6e207374616b696e672073657373696f6e00000000000000000000000000600082015250565b60006132da601383612555565b91506132e5826132a4565b602082019050919050565b60006020820190508181036000830152613309816132cd565b9050919050565b600060a0820190506133256000830188612b82565b6133326020830187612b82565b61333f6040830186612b82565b61334c6060830185612b82565b6133596080830184612b82565b9695505050505050565b7f417070726f7665204661696c65642c2074727920616761696e00000000000000600082015250565b6000613399601983612d19565b91506133a482613363565b601982019050919050565b60006133ba8261338c565b9150819050919050565b60006133cf82612295565b91506133da83612295565b92508282026133e881612295565b915082820484148315176133ff576133fe6129e2565b5b5092915050565b600060208201905061341b6000830184612b82565b92915050565b600060c0820190506134366000830189612b82565b6134436020830188612b82565b6134506040830187612b82565b61345d6060830186612b82565b61346a6080830185612b82565b61347760a0830184612b82565b979650505050505050565b7f496e637265617365204c6971756964697479206661696c3a2000000000000000600082015250565b60006134b8601983612d19565b91506134c382613482565b601982019050919050565b60006134d9826134ab565b91506134e58284612cd1565b915081905092915050565b60006134fc8284612e8b565b915081905092915050565b600060608201905061351c6000830186612b82565b613529602083018561226b565b6135366040830184612b82565b949350505050565b7f5061697220657869737473000000000000000000000000000000000000000000600082015250565b6000613574600b83612555565b915061357f8261353e565b602082019050919050565b600060208201905081810360008301526135a381613567565b9050919050565b60006135b582612295565b91507fffffffffffffffffffffffffffffffffffffffffffffffffffffffffffffffff82036135e7576135e66129e2565b5b60018201905091905056fea2646970667358221220261c8cbbd8a33a21e167e8080de595fe1fe6f5da98c71b9a8b5cc85a7684706064736f6c63430008110033",
  "linkReferences": {},
  "deployedLinkReferences": {}
}