{
  "_format": "hh-sol-artifact-1",
  "contractName": "LoKeyNFT",
  "sourceName": "contracts/LokeyERC721.sol",
  "abi": [
    {
      "inputs": [],
      "stateMutability": "nonpayable",
      "type": "constructor"
    },
    {
      "anonymous": false,
      "inputs": [
        {
          "indexed": true,
          "internalType": "address",
          "name": "owner",
          "type": "address"
        },
        {
          "indexed": true,
          "internalType": "address",
          "name": "approved",
          "type": "address"
        },
        {
          "indexed": true,
          "internalType": "uint256",
          "name": "tokenId",
          "type": "uint256"
        }
      ],
      "name": "Approval",
      "type": "event"
    },
    {
      "anonymous": false,
      "inputs": [
        {
          "indexed": true,
          "internalType": "address",
          "name": "owner",
          "type": "address"
        },
        {
          "indexed": true,
          "internalType": "address",
          "name": "operator",
          "type": "address"
        },
        {
          "indexed": false,
          "internalType": "bool",
          "name": "approved",
          "type": "bool"
        }
      ],
      "name": "ApprovalForAll",
      "type": "event"
    },
    {
      "anonymous": false,
      "inputs": [
        {
          "indexed": true,
          "internalType": "address",
          "name": "from",
          "type": "address"
        },
        {
          "indexed": true,
          "internalType": "address",
          "name": "to",
          "type": "address"
        },
        {
          "indexed": true,
          "internalType": "uint256",
          "name": "tokenId",
          "type": "uint256"
        }
      ],
      "name": "Transfer",
      "type": "event"
    },
    {
      "inputs": [
        {
          "internalType": "address",
          "name": "to",
          "type": "address"
        },
        {
          "internalType": "uint256",
          "name": "tokenId",
          "type": "uint256"
        }
      ],
      "name": "approve",
      "outputs": [],
      "stateMutability": "nonpayable",
      "type": "function"
    },
    {
      "inputs": [
        {
          "internalType": "address",
          "name": "owner",
          "type": "address"
        }
      ],
      "name": "balanceOf",
      "outputs": [
        {
          "internalType": "uint256",
          "name": "",
          "type": "uint256"
        }
      ],
      "stateMutability": "view",
      "type": "function"
    },
    {
      "inputs": [
        {
          "internalType": "uint256",
          "name": "tokenId",
          "type": "uint256"
        }
      ],
      "name": "getApproved",
      "outputs": [
        {
          "internalType": "address",
          "name": "",
          "type": "address"
        }
      ],
      "stateMutability": "view",
      "type": "function"
    },
    {
      "inputs": [
        {
          "internalType": "address",
          "name": "owner",
          "type": "address"
        },
        {
          "internalType": "address",
          "name": "operator",
          "type": "address"
        }
      ],
      "name": "isApprovedForAll",
      "outputs": [
        {
          "internalType": "bool",
          "name": "",
          "type": "bool"
        }
      ],
      "stateMutability": "view",
      "type": "function"
    },
    {
      "inputs": [],
      "name": "name",
      "outputs": [
        {
          "internalType": "string",
          "name": "",
          "type": "string"
        }
      ],
      "stateMutability": "view",
      "type": "function"
    },
    {
      "inputs": [
        {
          "internalType": "uint256",
          "name": "tokenId",
          "type": "uint256"
        }
      ],
      "name": "ownerOf",
      "outputs": [
        {
          "internalType": "address",
          "name": "",
          "type": "address"
        }
      ],
      "stateMutability": "view",
      "type": "function"
    },
    {
      "inputs": [
        {
          "internalType": "address",
          "name": "to",
          "type": "address"
        },
        {
          "internalType": "string",
          "name": "uri",
          "type": "string"
        }
      ],
      "name": "safeMint",
      "outputs": [],
      "stateMutability": "nonpayable",
      "type": "function"
    },
    {
      "inputs": [
        {
          "internalType": "address",
          "name": "from",
          "type": "address"
        },
        {
          "internalType": "address",
          "name": "to",
          "type": "address"
        },
        {
          "internalType": "uint256",
          "name": "tokenId",
          "type": "uint256"
        }
      ],
      "name": "safeTransferFrom",
      "outputs": [],
      "stateMutability": "nonpayable",
      "type": "function"
    },
    {
      "inputs": [
        {
          "internalType": "address",
          "name": "from",
          "type": "address"
        },
        {
          "internalType": "address",
          "name": "to",
          "type": "address"
        },
        {
          "internalType": "uint256",
          "name": "tokenId",
          "type": "uint256"
        },
        {
          "internalType": "bytes",
          "name": "data",
          "type": "bytes"
        }
      ],
      "name": "safeTransferFrom",
      "outputs": [],
      "stateMutability": "nonpayable",
      "type": "function"
    },
    {
      "inputs": [
        {
          "internalType": "address",
          "name": "operator",
          "type": "address"
        },
        {
          "internalType": "bool",
          "name": "approved",
          "type": "bool"
        }
      ],
      "name": "setApprovalForAll",
      "outputs": [],
      "stateMutability": "nonpayable",
      "type": "function"
    },
    {
      "inputs": [
        {
          "internalType": "bytes4",
          "name": "interfaceId",
          "type": "bytes4"
        }
      ],
      "name": "supportsInterface",
      "outputs": [
        {
          "internalType": "bool",
          "name": "",
          "type": "bool"
        }
      ],
      "stateMutability": "view",
      "type": "function"
    },
    {
      "inputs": [],
      "name": "symbol",
      "outputs": [
        {
          "internalType": "string",
          "name": "",
          "type": "string"
        }
      ],
      "stateMutability": "view",
      "type": "function"
    },
    {
      "inputs": [
        {
          "internalType": "uint256",
          "name": "tokenId",
          "type": "uint256"
        }
      ],
      "name": "tokenURI",
      "outputs": [
        {
          "internalType": "string",
          "name": "",
          "type": "string"
        }
      ],
      "stateMutability": "view",
      "type": "function"
    },
    {
      "inputs": [
        {
          "internalType": "address",
          "name": "from",
          "type": "address"
        },
        {
          "internalType": "address",
          "name": "to",
          "type": "address"
        },
        {
          "internalType": "uint256",
          "name": "tokenId",
          "type": "uint256"
        }
      ],
      "name": "transferFrom",
      "outputs": [],
      "stateMutability": "nonpayable",
      "type": "function"
    },
    {
      "inputs": [],
      "name": "viewAdmin",
      "outputs": [
        {
          "internalType": "address",
          "name": "_admin",
          "type": "address"
        }
      ],
      "stateMutability": "view",
      "type": "function"
    }
  ],
  "bytecode": "0x60806040523480156200001157600080fd5b506040518060400160405280600881526020017f4c6f4b65794e46540000000000000000000000000000000000000000000000008152506040518060400160405280600581526020017f4c4b37323100000000000000000000000000000000000000000000000000000081525081600090816200008f919062000365565b508060019081620000a1919062000365565b50505033600760006101000a81548173ffffffffffffffffffffffffffffffffffffffff021916908373ffffffffffffffffffffffffffffffffffffffff1602179055506200044c565b600081519050919050565b7f4e487b7100000000000000000000000000000000000000000000000000000000600052604160045260246000fd5b7f4e487b7100000000000000000000000000000000000000000000000000000000600052602260045260246000fd5b600060028204905060018216806200016d57607f821691505b60208210810362000183576200018262000125565b5b50919050565b60008190508160005260206000209050919050565b60006020601f8301049050919050565b600082821b905092915050565b600060088302620001ed7fffffffffffffffffffffffffffffffffffffffffffffffffffffffffffffffff82620001ae565b620001f98683620001ae565b95508019841693508086168417925050509392505050565b6000819050919050565b6000819050919050565b600062000246620002406200023a8462000211565b6200021b565b62000211565b9050919050565b6000819050919050565b620002628362000225565b6200027a62000271826200024d565b848454620001bb565b825550505050565b600090565b6200029162000282565b6200029e81848462000257565b505050565b5b81811015620002c657620002ba60008262000287565b600181019050620002a4565b5050565b601f8211156200031557620002df8162000189565b620002ea846200019e565b81016020851015620002fa578190505b6200031262000309856200019e565b830182620002a3565b50505b505050565b600082821c905092915050565b60006200033a600019846008026200031a565b1980831691505092915050565b600062000355838362000327565b9150826002028217905092915050565b6200037082620000eb565b67ffffffffffffffff8111156200038c576200038b620000f6565b5b62000398825462000154565b620003a5828285620002ca565b600060209050601f831160018114620003dd5760008415620003c8578287015190505b620003d4858262000347565b86555062000444565b601f198416620003ed8662000189565b60005b828110156200041757848901518255600182019150602085019450602081019050620003f0565b8683101562000437578489015162000433601f89168262000327565b8355505b6001600288020188555050505b505050505050565b612bf6806200045c6000396000f3fe608060405234801561001057600080fd5b50600436106100f55760003560e01c806370a0823111610097578063b88d4fde11610066578063b88d4fde14610284578063c87b56dd146102a0578063d204c45e146102d0578063e985e9c5146102ec576100f5565b806370a08231146101fc57806395d89b411461022c5780639910ed9a1461024a578063a22cb46514610268576100f5565b8063095ea7b3116100d3578063095ea7b31461017857806323b872dd1461019457806342842e0e146101b05780636352211e146101cc576100f5565b806301ffc9a7146100fa57806306fdde031461012a578063081812fc14610148575b600080fd5b610114600480360381019061010f9190611909565b61031c565b6040516101219190611951565b60405180910390f35b6101326103fe565b60405161013f91906119fc565b60405180910390f35b610162600480360381019061015d9190611a54565b610490565b60405161016f9190611ac2565b60405180910390f35b610192600480360381019061018d9190611b09565b6104d6565b005b6101ae60048036038101906101a99190611b49565b6105ed565b005b6101ca60048036038101906101c59190611b49565b61064d565b005b6101e660048036038101906101e19190611a54565b61066d565b6040516101f39190611ac2565b60405180910390f35b61021660048036038101906102119190611b9c565b61071e565b6040516102239190611bd8565b60405180910390f35b6102346107d5565b60405161024191906119fc565b60405180910390f35b610252610867565b60405161025f9190611ac2565b60405180910390f35b610282600480360381019061027d9190611c1f565b610891565b005b61029e60048036038101906102999190611d94565b6108a7565b005b6102ba60048036038101906102b59190611a54565b610909565b6040516102c791906119fc565b60405180910390f35b6102ea60048036038101906102e59190611eb8565b61091b565b005b61030660048036038101906103019190611f14565b6109dc565b6040516103139190611951565b60405180910390f35b60007f80ac58cd000000000000000000000000000000000000000000000000000000007bffffffffffffffffffffffffffffffffffffffffffffffffffffffff1916827bffffffffffffffffffffffffffffffffffffffffffffffffffffffff191614806103e757507f5b5e139f000000000000000000000000000000000000000000000000000000007bffffffffffffffffffffffffffffffffffffffffffffffffffffffff1916827bffffffffffffffffffffffffffffffffffffffffffffffffffffffff1916145b806103f757506103f682610a70565b5b9050919050565b60606000805461040d90611f83565b80601f016020809104026020016040519081016040528092919081815260200182805461043990611f83565b80156104865780601f1061045b57610100808354040283529160200191610486565b820191906000526020600020905b81548152906001019060200180831161046957829003601f168201915b5050505050905090565b600061049b82610ada565b6004600083815260200190815260200160002060009054906101000a900473ffffffffffffffffffffffffffffffffffffffff169050919050565b60006104e18261066d565b90508073ffffffffffffffffffffffffffffffffffffffff168373ffffffffffffffffffffffffffffffffffffffff1603610551576040517f08c379a000000000000000000000000000000000000000000000000000000000815260040161054890612026565b60405180910390fd5b8073ffffffffffffffffffffffffffffffffffffffff16610570610b25565b73ffffffffffffffffffffffffffffffffffffffff16148061059f575061059e81610599610b25565b6109dc565b5b6105de576040517f08c379a00000000000000000000000000000000000000000000000000000000081526004016105d5906120b8565b60405180910390fd5b6105e88383610b2d565b505050565b6105fe6105f8610b25565b82610be6565b61063d576040517f08c379a00000000000000000000000000000000000000000000000000000000081526004016106349061214a565b60405180910390fd5b610648838383610c7b565b505050565b610668838383604051806020016040528060008152506108a7565b505050565b6000806002600084815260200190815260200160002060009054906101000a900473ffffffffffffffffffffffffffffffffffffffff169050600073ffffffffffffffffffffffffffffffffffffffff168173ffffffffffffffffffffffffffffffffffffffff1603610715576040517f08c379a000000000000000000000000000000000000000000000000000000000815260040161070c906121b6565b60405180910390fd5b80915050919050565b60008073ffffffffffffffffffffffffffffffffffffffff168273ffffffffffffffffffffffffffffffffffffffff160361078e576040517f08c379a000000000000000000000000000000000000000000000000000000000815260040161078590612248565b60405180910390fd5b600360008373ffffffffffffffffffffffffffffffffffffffff1673ffffffffffffffffffffffffffffffffffffffff168152602001908152602001600020549050919050565b6060600180546107e490611f83565b80601f016020809104026020016040519081016040528092919081815260200182805461081090611f83565b801561085d5780601f106108325761010080835404028352916020019161085d565b820191906000526020600020905b81548152906001019060200180831161084057829003601f168201915b5050505050905090565b6000600760009054906101000a900473ffffffffffffffffffffffffffffffffffffffff16905090565b6108a361089c610b25565b8383610ee1565b5050565b6108b86108b2610b25565b83610be6565b6108f7576040517f08c379a00000000000000000000000000000000000000000000000000000000081526004016108ee9061214a565b60405180910390fd5b6109038484848461104d565b50505050565b6060610914826110a9565b9050919050565b600760009054906101000a900473ffffffffffffffffffffffffffffffffffffffff1673ffffffffffffffffffffffffffffffffffffffff163373ffffffffffffffffffffffffffffffffffffffff16146109ab576040517f08c379a00000000000000000000000000000000000000000000000000000000081526004016109a2906122b4565b60405180910390fd5b60006109b760086111bb565b90506109c360086111c9565b6109cd83826111df565b6109d781836111fd565b505050565b6000600560008473ffffffffffffffffffffffffffffffffffffffff1673ffffffffffffffffffffffffffffffffffffffff16815260200190815260200160002060008373ffffffffffffffffffffffffffffffffffffffff1673ffffffffffffffffffffffffffffffffffffffff16815260200190815260200160002060009054906101000a900460ff16905092915050565b60007f01ffc9a7000000000000000000000000000000000000000000000000000000007bffffffffffffffffffffffffffffffffffffffffffffffffffffffff1916827bffffffffffffffffffffffffffffffffffffffffffffffffffffffff1916149050919050565b610ae38161126a565b610b22576040517f08c379a0000000000000000000000000000000000000000000000000000000008152600401610b19906121b6565b60405180910390fd5b50565b600033905090565b816004600083815260200190815260200160002060006101000a81548173ffffffffffffffffffffffffffffffffffffffff021916908373ffffffffffffffffffffffffffffffffffffffff160217905550808273ffffffffffffffffffffffffffffffffffffffff16610ba08361066d565b73ffffffffffffffffffffffffffffffffffffffff167f8c5be1e5ebec7d5bd14f71427d1e84f3dd0314c0f7b2291e5b200ac8c7c3b92560405160405180910390a45050565b600080610bf28361066d565b90508073ffffffffffffffffffffffffffffffffffffffff168473ffffffffffffffffffffffffffffffffffffffff161480610c345750610c3381856109dc565b5b80610c7257508373ffffffffffffffffffffffffffffffffffffffff16610c5a84610490565b73ffffffffffffffffffffffffffffffffffffffff16145b91505092915050565b8273ffffffffffffffffffffffffffffffffffffffff16610c9b8261066d565b73ffffffffffffffffffffffffffffffffffffffff1614610cf1576040517f08c379a0000000000000000000000000000000000000000000000000000000008152600401610ce890612346565b60405180910390fd5b600073ffffffffffffffffffffffffffffffffffffffff168273ffffffffffffffffffffffffffffffffffffffff1603610d60576040517f08c379a0000000000000000000000000000000000000000000000000000000008152600401610d57906123d8565b60405180910390fd5b610d6b8383836112d6565b610d76600082610b2d565b6001600360008573ffffffffffffffffffffffffffffffffffffffff1673ffffffffffffffffffffffffffffffffffffffff1681526020019081526020016000206000828254610dc69190612427565b925050819055506001600360008473ffffffffffffffffffffffffffffffffffffffff1673ffffffffffffffffffffffffffffffffffffffff1681526020019081526020016000206000828254610e1d919061245b565b92505081905550816002600083815260200190815260200160002060006101000a81548173ffffffffffffffffffffffffffffffffffffffff021916908373ffffffffffffffffffffffffffffffffffffffff160217905550808273ffffffffffffffffffffffffffffffffffffffff168473ffffffffffffffffffffffffffffffffffffffff167fddf252ad1be2c89b69c2b068fc378daa952ba7f163c4a11628f55a4df523b3ef60405160405180910390a4610edc8383836112db565b505050565b8173ffffffffffffffffffffffffffffffffffffffff168373ffffffffffffffffffffffffffffffffffffffff1603610f4f576040517f08c379a0000000000000000000000000000000000000000000000000000000008152600401610f46906124db565b60405180910390fd5b80600560008573ffffffffffffffffffffffffffffffffffffffff1673ffffffffffffffffffffffffffffffffffffffff16815260200190815260200160002060008473ffffffffffffffffffffffffffffffffffffffff1673ffffffffffffffffffffffffffffffffffffffff16815260200190815260200160002060006101000a81548160ff0219169083151502179055508173ffffffffffffffffffffffffffffffffffffffff168373ffffffffffffffffffffffffffffffffffffffff167f17307eab39ab6107e8899845ad3d59bd9653f200f220920489ca2b5937696c31836040516110409190611951565b60405180910390a3505050565b611058848484610c7b565b611064848484846112e0565b6110a3576040517f08c379a000000000000000000000000000000000000000000000000000000000815260040161109a9061256d565b60405180910390fd5b50505050565b60606110b482610ada565b60006006600084815260200190815260200160002080546110d490611f83565b80601f016020809104026020016040519081016040528092919081815260200182805461110090611f83565b801561114d5780601f106111225761010080835404028352916020019161114d565b820191906000526020600020905b81548152906001019060200180831161113057829003601f168201915b50505050509050600061115e611467565b905060008151036111735781925050506111b6565b6000825111156111a85780826040516020016111909291906125c9565b604051602081830303815290604052925050506111b6565b6111b18461147e565b925050505b919050565b600081600001549050919050565b6001816000016000828254019250508190555050565b6111f98282604051806020016040528060008152506114e6565b5050565b6112068261126a565b611245576040517f08c379a000000000000000000000000000000000000000000000000000000000815260040161123c9061265f565b60405180910390fd5b80600660008481526020019081526020016000209081611265919061282b565b505050565b60008073ffffffffffffffffffffffffffffffffffffffff166002600084815260200190815260200160002060009054906101000a900473ffffffffffffffffffffffffffffffffffffffff1673ffffffffffffffffffffffffffffffffffffffff1614159050919050565b505050565b505050565b60006113018473ffffffffffffffffffffffffffffffffffffffff16611541565b1561145a578373ffffffffffffffffffffffffffffffffffffffff1663150b7a0261132a610b25565b8786866040518563ffffffff1660e01b815260040161134c9493929190612952565b6020604051808303816000875af192505050801561138857506040513d601f19601f8201168201806040525081019061138591906129b3565b60015b61140a573d80600081146113b8576040519150601f19603f3d011682016040523d82523d6000602084013e6113bd565b606091505b506000815103611402576040517f08c379a00000000000000000000000000000000000000000000000000000000081526004016113f99061256d565b60405180910390fd5b805181602001fd5b63150b7a0260e01b7bffffffffffffffffffffffffffffffffffffffffffffffffffffffff1916817bffffffffffffffffffffffffffffffffffffffffffffffffffffffff19161491505061145f565b600190505b949350505050565b606060405180602001604052806000815250905090565b606061148982610ada565b6000611493611467565b905060008151116114b357604051806020016040528060008152506114de565b806114bd84611564565b6040516020016114ce9291906125c9565b6040516020818303038152906040525b915050919050565b6114f083836116c4565b6114fd60008484846112e0565b61153c576040517f08c379a00000000000000000000000000000000000000000000000000000000081526004016115339061256d565b60405180910390fd5b505050565b6000808273ffffffffffffffffffffffffffffffffffffffff163b119050919050565b6060600082036115ab576040518060400160405280600181526020017f300000000000000000000000000000000000000000000000000000000000000081525090506116bf565b600082905060005b600082146115dd5780806115c6906129e0565b915050600a826115d69190612a57565b91506115b3565b60008167ffffffffffffffff8111156115f9576115f8611c69565b5b6040519080825280601f01601f19166020018201604052801561162b5781602001600182028036833780820191505090505b5090505b600085146116b8576001826116449190612427565b9150600a856116539190612a88565b603061165f919061245b565b60f81b81838151811061167557611674612ab9565b5b60200101907effffffffffffffffffffffffffffffffffffffffffffffffffffffffffffff1916908160001a905350600a856116b19190612a57565b945061162f565b8093505050505b919050565b600073ffffffffffffffffffffffffffffffffffffffff168273ffffffffffffffffffffffffffffffffffffffff1603611733576040517f08c379a000000000000000000000000000000000000000000000000000000000815260040161172a90612b34565b60405180910390fd5b61173c8161126a565b1561177c576040517f08c379a000000000000000000000000000000000000000000000000000000000815260040161177390612ba0565b60405180910390fd5b611788600083836112d6565b6001600360008473ffffffffffffffffffffffffffffffffffffffff1673ffffffffffffffffffffffffffffffffffffffff16815260200190815260200160002060008282546117d8919061245b565b92505081905550816002600083815260200190815260200160002060006101000a81548173ffffffffffffffffffffffffffffffffffffffff021916908373ffffffffffffffffffffffffffffffffffffffff160217905550808273ffffffffffffffffffffffffffffffffffffffff16600073ffffffffffffffffffffffffffffffffffffffff167fddf252ad1be2c89b69c2b068fc378daa952ba7f163c4a11628f55a4df523b3ef60405160405180910390a4611899600083836112db565b5050565b6000604051905090565b600080fd5b600080fd5b60007fffffffff0000000000000000000000000000000000000000000000000000000082169050919050565b6118e6816118b1565b81146118f157600080fd5b50565b600081359050611903816118dd565b92915050565b60006020828403121561191f5761191e6118a7565b5b600061192d848285016118f4565b91505092915050565b60008115159050919050565b61194b81611936565b82525050565b60006020820190506119666000830184611942565b92915050565b600081519050919050565b600082825260208201905092915050565b60005b838110156119a657808201518184015260208101905061198b565b60008484015250505050565b6000601f19601f8301169050919050565b60006119ce8261196c565b6119d88185611977565b93506119e8818560208601611988565b6119f1816119b2565b840191505092915050565b60006020820190508181036000830152611a1681846119c3565b905092915050565b6000819050919050565b611a3181611a1e565b8114611a3c57600080fd5b50565b600081359050611a4e81611a28565b92915050565b600060208284031215611a6a57611a696118a7565b5b6000611a7884828501611a3f565b91505092915050565b600073ffffffffffffffffffffffffffffffffffffffff82169050919050565b6000611aac82611a81565b9050919050565b611abc81611aa1565b82525050565b6000602082019050611ad76000830184611ab3565b92915050565b611ae681611aa1565b8114611af157600080fd5b50565b600081359050611b0381611add565b92915050565b60008060408385031215611b2057611b1f6118a7565b5b6000611b2e85828601611af4565b9250506020611b3f85828601611a3f565b9150509250929050565b600080600060608486031215611b6257611b616118a7565b5b6000611b7086828701611af4565b9350506020611b8186828701611af4565b9250506040611b9286828701611a3f565b9150509250925092565b600060208284031215611bb257611bb16118a7565b5b6000611bc084828501611af4565b91505092915050565b611bd281611a1e565b82525050565b6000602082019050611bed6000830184611bc9565b92915050565b611bfc81611936565b8114611c0757600080fd5b50565b600081359050611c1981611bf3565b92915050565b60008060408385031215611c3657611c356118a7565b5b6000611c4485828601611af4565b9250506020611c5585828601611c0a565b9150509250929050565b600080fd5b600080fd5b7f4e487b7100000000000000000000000000000000000000000000000000000000600052604160045260246000fd5b611ca1826119b2565b810181811067ffffffffffffffff82111715611cc057611cbf611c69565b5b80604052505050565b6000611cd361189d565b9050611cdf8282611c98565b919050565b600067ffffffffffffffff821115611cff57611cfe611c69565b5b611d08826119b2565b9050602081019050919050565b82818337600083830152505050565b6000611d37611d3284611ce4565b611cc9565b905082815260208101848484011115611d5357611d52611c64565b5b611d5e848285611d15565b509392505050565b600082601f830112611d7b57611d7a611c5f565b5b8135611d8b848260208601611d24565b91505092915050565b60008060008060808587031215611dae57611dad6118a7565b5b6000611dbc87828801611af4565b9450506020611dcd87828801611af4565b9350506040611dde87828801611a3f565b925050606085013567ffffffffffffffff811115611dff57611dfe6118ac565b5b611e0b87828801611d66565b91505092959194509250565b600067ffffffffffffffff821115611e3257611e31611c69565b5b611e3b826119b2565b9050602081019050919050565b6000611e5b611e5684611e17565b611cc9565b905082815260208101848484011115611e7757611e76611c64565b5b611e82848285611d15565b509392505050565b600082601f830112611e9f57611e9e611c5f565b5b8135611eaf848260208601611e48565b91505092915050565b60008060408385031215611ecf57611ece6118a7565b5b6000611edd85828601611af4565b925050602083013567ffffffffffffffff811115611efe57611efd6118ac565b5b611f0a85828601611e8a565b9150509250929050565b60008060408385031215611f2b57611f2a6118a7565b5b6000611f3985828601611af4565b9250506020611f4a85828601611af4565b9150509250929050565b7f4e487b7100000000000000000000000000000000000000000000000000000000600052602260045260246000fd5b60006002820490506001821680611f9b57607f821691505b602082108103611fae57611fad611f54565b5b50919050565b7f4552433732313a20617070726f76616c20746f2063757272656e74206f776e6560008201527f7200000000000000000000000000000000000000000000000000000000000000602082015250565b6000612010602183611977565b915061201b82611fb4565b604082019050919050565b6000602082019050818103600083015261203f81612003565b9050919050565b7f4552433732313a20617070726f76652063616c6c6572206973206e6f7420746f60008201527f6b656e206f776e6572206e6f7220617070726f76656420666f7220616c6c0000602082015250565b60006120a2603e83611977565b91506120ad82612046565b604082019050919050565b600060208201905081810360008301526120d181612095565b9050919050565b7f4552433732313a2063616c6c6572206973206e6f7420746f6b656e206f776e6560008201527f72206e6f7220617070726f766564000000000000000000000000000000000000602082015250565b6000612134602e83611977565b915061213f826120d8565b604082019050919050565b6000602082019050818103600083015261216381612127565b9050919050565b7f4552433732313a20696e76616c696420746f6b656e2049440000000000000000600082015250565b60006121a0601883611977565b91506121ab8261216a565b602082019050919050565b600060208201905081810360008301526121cf81612193565b9050919050565b7f4552433732313a2061646472657373207a65726f206973206e6f74206120766160008201527f6c6964206f776e65720000000000000000000000000000000000000000000000602082015250565b6000612232602983611977565b915061223d826121d6565b604082019050919050565b6000602082019050818103600083015261226181612225565b9050919050565b7f556e617574686f72697a65640000000000000000000000000000000000000000600082015250565b600061229e600c83611977565b91506122a982612268565b602082019050919050565b600060208201905081810360008301526122cd81612291565b9050919050565b7f4552433732313a207472616e736665722066726f6d20696e636f72726563742060008201527f6f776e6572000000000000000000000000000000000000000000000000000000602082015250565b6000612330602583611977565b915061233b826122d4565b604082019050919050565b6000602082019050818103600083015261235f81612323565b9050919050565b7f4552433732313a207472616e7366657220746f20746865207a65726f2061646460008201527f7265737300000000000000000000000000000000000000000000000000000000602082015250565b60006123c2602483611977565b91506123cd82612366565b604082019050919050565b600060208201905081810360008301526123f1816123b5565b9050919050565b7f4e487b7100000000000000000000000000000000000000000000000000000000600052601160045260246000fd5b600061243282611a1e565b915061243d83611a1e565b9250828203905081811115612455576124546123f8565b5b92915050565b600061246682611a1e565b915061247183611a1e565b9250828201905080821115612489576124886123f8565b5b92915050565b7f4552433732313a20617070726f766520746f2063616c6c657200000000000000600082015250565b60006124c5601983611977565b91506124d08261248f565b602082019050919050565b600060208201905081810360008301526124f4816124b8565b9050919050565b7f4552433732313a207472616e7366657220746f206e6f6e20455243373231526560008201527f63656976657220696d706c656d656e7465720000000000000000000000000000602082015250565b6000612557603283611977565b9150612562826124fb565b604082019050919050565b600060208201905081810360008301526125868161254a565b9050919050565b600081905092915050565b60006125a38261196c565b6125ad818561258d565b93506125bd818560208601611988565b80840191505092915050565b60006125d58285612598565b91506125e18284612598565b91508190509392505050565b7f45524337323155524953746f726167653a2055524920736574206f66206e6f6e60008201527f6578697374656e7420746f6b656e000000000000000000000000000000000000602082015250565b6000612649602e83611977565b9150612654826125ed565b604082019050919050565b600060208201905081810360008301526126788161263c565b9050919050565b60008190508160005260206000209050919050565b60006020601f8301049050919050565b600082821b905092915050565b6000600883026126e17fffffffffffffffffffffffffffffffffffffffffffffffffffffffffffffffff826126a4565b6126eb86836126a4565b95508019841693508086168417925050509392505050565b6000819050919050565b600061272861272361271e84611a1e565b612703565b611a1e565b9050919050565b6000819050919050565b6127428361270d565b61275661274e8261272f565b8484546126b1565b825550505050565b600090565b61276b61275e565b612776818484612739565b505050565b5b8181101561279a5761278f600082612763565b60018101905061277c565b5050565b601f8211156127df576127b08161267f565b6127b984612694565b810160208510156127c8578190505b6127dc6127d485612694565b83018261277b565b50505b505050565b600082821c905092915050565b6000612802600019846008026127e4565b1980831691505092915050565b600061281b83836127f1565b9150826002028217905092915050565b6128348261196c565b67ffffffffffffffff81111561284d5761284c611c69565b5b6128578254611f83565b61286282828561279e565b600060209050601f8311600181146128955760008415612883578287015190505b61288d858261280f565b8655506128f5565b601f1984166128a38661267f565b60005b828110156128cb578489015182556001820191506020850194506020810190506128a6565b868310156128e857848901516128e4601f8916826127f1565b8355505b6001600288020188555050505b505050505050565b600081519050919050565b600082825260208201905092915050565b6000612924826128fd565b61292e8185612908565b935061293e818560208601611988565b612947816119b2565b840191505092915050565b60006080820190506129676000830187611ab3565b6129746020830186611ab3565b6129816040830185611bc9565b81810360608301526129938184612919565b905095945050505050565b6000815190506129ad816118dd565b92915050565b6000602082840312156129c9576129c86118a7565b5b60006129d78482850161299e565b91505092915050565b60006129eb82611a1e565b91507fffffffffffffffffffffffffffffffffffffffffffffffffffffffffffffffff8203612a1d57612a1c6123f8565b5b600182019050919050565b7f4e487b7100000000000000000000000000000000000000000000000000000000600052601260045260246000fd5b6000612a6282611a1e565b9150612a6d83611a1e565b925082612a7d57612a7c612a28565b5b828204905092915050565b6000612a9382611a1e565b9150612a9e83611a1e565b925082612aae57612aad612a28565b5b828206905092915050565b7f4e487b7100000000000000000000000000000000000000000000000000000000600052603260045260246000fd5b7f4552433732313a206d696e7420746f20746865207a65726f2061646472657373600082015250565b6000612b1e602083611977565b9150612b2982612ae8565b602082019050919050565b60006020820190508181036000830152612b4d81612b11565b9050919050565b7f4552433732313a20746f6b656e20616c7265616479206d696e74656400000000600082015250565b6000612b8a601c83611977565b9150612b9582612b54565b602082019050919050565b60006020820190508181036000830152612bb981612b7d565b905091905056fea26469706673582212202b4b47971ed2ec2ffca1737dba5b50025da66ed6c6beff48cb74a90f2fc74f6a64736f6c63430008110033",
  "linkReferences": {},
  "deployedLinkReferences": {}
}